{
  "contractName": "AuraNFTBridge",
  "abi": [
    {
      "inputs": [
        {
          "internalType": "contract AuraNFT",
          "name": "_auraNFT",
          "type": "address"
        }
      ],
      "stateMutability": "nonpayable",
      "type": "constructor"
    },
    {
      "anonymous": false,
      "inputs": [
        {
          "indexed": true,
          "internalType": "address",
          "name": "previousOwner",
          "type": "address"
        },
        {
          "indexed": true,
          "internalType": "address",
          "name": "newOwner",
          "type": "address"
        }
      ],
      "name": "OwnershipTransferred",
      "type": "event"
    },
    {
      "inputs": [],
      "name": "owner",
      "outputs": [
        {
          "internalType": "address",
          "name": "",
          "type": "address"
        }
      ],
      "stateMutability": "view",
      "type": "function"
    },
    {
      "inputs": [],
      "name": "renounceOwnership",
      "outputs": [],
      "stateMutability": "nonpayable",
      "type": "function"
    },
    {
      "inputs": [
        {
          "internalType": "address",
          "name": "newOwner",
          "type": "address"
        }
      ],
      "name": "transferOwnership",
      "outputs": [],
      "stateMutability": "nonpayable",
      "type": "function"
    },
    {
      "inputs": [
        {
          "internalType": "string",
          "name": "externalTokenID",
          "type": "string"
        },
        {
          "internalType": "address",
          "name": "owner",
          "type": "address"
        },
        {
          "internalType": "string",
          "name": "uri",
          "type": "string"
        }
      ],
      "name": "bridgeFromSolana",
      "outputs": [],
      "stateMutability": "nonpayable",
      "type": "function"
    },
    {
      "inputs": [
        {
          "internalType": "string",
          "name": "externalTokenID",
          "type": "string"
        }
      ],
      "name": "mintBridgedNFT",
      "outputs": [],
      "stateMutability": "nonpayable",
      "type": "function"
    },
    {
      "inputs": [
        {
          "internalType": "string",
          "name": "externalTokenID",
          "type": "string"
        }
      ],
      "name": "isBridged",
      "outputs": [
        {
          "internalType": "bool",
          "name": "",
          "type": "bool"
        }
      ],
      "stateMutability": "view",
      "type": "function"
    },
    {
      "inputs": [
        {
          "internalType": "string",
          "name": "externalTokenID",
          "type": "string"
        }
      ],
      "name": "getPickUpOwner",
      "outputs": [
        {
          "internalType": "address",
          "name": "",
          "type": "address"
        }
      ],
      "stateMutability": "view",
      "type": "function"
    },
    {
      "inputs": [
        {
          "internalType": "string",
          "name": "externalTokenID",
          "type": "string"
        }
      ],
      "name": "getMinted",
      "outputs": [
        {
          "internalType": "uint256",
          "name": "",
          "type": "uint256"
        }
      ],
      "stateMutability": "view",
      "type": "function"
    },
    {
      "inputs": [
        {
          "internalType": "uint256",
          "name": "tokenId",
          "type": "uint256"
        },
        {
          "internalType": "string",
          "name": "externalOwnerAddress",
          "type": "string"
        }
      ],
      "name": "bridgeToSolana",
      "outputs": [],
      "stateMutability": "nonpayable",
      "type": "function"
    },
    {
      "inputs": [
        {
          "internalType": "address",
          "name": "_bridger",
          "type": "address"
        }
      ],
      "name": "addBridger",
      "outputs": [
        {
          "internalType": "bool",
          "name": "",
          "type": "bool"
        }
      ],
      "stateMutability": "nonpayable",
      "type": "function"
    },
    {
      "inputs": [
        {
          "internalType": "address",
          "name": "_bridger",
          "type": "address"
        }
      ],
      "name": "delBridger",
      "outputs": [
        {
          "internalType": "bool",
          "name": "",
          "type": "bool"
        }
      ],
      "stateMutability": "nonpayable",
      "type": "function"
    },
    {
      "inputs": [],
      "name": "getBridgersLength",
      "outputs": [
        {
          "internalType": "uint256",
          "name": "",
          "type": "uint256"
        }
      ],
      "stateMutability": "view",
      "type": "function"
    },
    {
      "inputs": [
        {
          "internalType": "address",
          "name": "account",
          "type": "address"
        }
      ],
      "name": "isBridger",
      "outputs": [
        {
          "internalType": "bool",
          "name": "",
          "type": "bool"
        }
      ],
      "stateMutability": "view",
      "type": "function"
    },
    {
      "inputs": [
        {
          "internalType": "uint256",
          "name": "_index",
          "type": "uint256"
        }
      ],
      "name": "getBridger",
      "outputs": [
        {
          "internalType": "address",
          "name": "",
          "type": "address"
        }
      ],
      "stateMutability": "view",
      "type": "function"
    },
    {
      "inputs": [],
      "name": "getBridgeToSolanaEventsSize",
      "outputs": [
        {
          "internalType": "uint256",
          "name": "",
          "type": "uint256"
        }
      ],
      "stateMutability": "view",
      "type": "function"
    },
    {
      "inputs": [],
      "name": "getBridgeToSolanaEvents",
      "outputs": [
        {
          "components": [
            {
              "internalType": "string",
              "name": "externalTokenID",
              "type": "string"
            },
            {
              "internalType": "string",
              "name": "externalOwnerID",
              "type": "string"
            },
            {
              "internalType": "uint256",
              "name": "timestamp",
              "type": "uint256"
            }
          ],
          "internalType": "struct AuraNFTBridge.BridgeToSolana[]",
          "name": "",
          "type": "tuple[]"
        }
      ],
      "stateMutability": "view",
      "type": "function"
    },
    {
      "inputs": [
        {
          "internalType": "uint256",
          "name": "index",
          "type": "uint256"
        }
      ],
      "name": "getBridgeToSolanaEvent",
      "outputs": [
        {
          "components": [
            {
              "internalType": "string",
              "name": "externalTokenID",
              "type": "string"
            },
            {
              "internalType": "string",
              "name": "externalOwnerID",
              "type": "string"
            },
            {
              "internalType": "uint256",
              "name": "timestamp",
              "type": "uint256"
            }
          ],
          "internalType": "struct AuraNFTBridge.BridgeToSolana",
          "name": "",
          "type": "tuple"
        }
      ],
      "stateMutability": "view",
      "type": "function"
    }
  ],
  "bytecode": "0x608060405234801561001057600080fd5b5060405161192f38038061192f83398101604081905261002f916100ad565b6100383361005d565b600880546001600160a01b0319166001600160a01b03929092169190911790556100dd565b600080546001600160a01b038381166001600160a01b0319831681178455604051919092169283917f8be0079c531659141344cd1fd0a4f28419497f9722a3daafe3b4186f6b6457e09190a35050565b6000602082840312156100bf57600080fd5b81516001600160a01b03811681146100d657600080fd5b9392505050565b611843806100ec6000396000f3fe608060405234801561001057600080fd5b506004361061010b5760003560e01c8063a16427c8116100a2578063bd0df76c11610071578063bd0df76c14610222578063cf2f6a2614610235578063e47377161461023d578063f2fde38b14610245578063fa6a0a521461025857600080fd5b8063a16427c8146101d4578063a61cb53e146101e7578063ab7997ab146101fc578063b0a999131461020f57600080fd5b80637fdd6f88116100de5780637fdd6f8814610168578063821c48a41461017b5780638c5eb1741461019c5780638da5cb5b146101af57600080fd5b80633589ffd81461011057806349145a9f146101255780634a81e95514610138578063715018a614610160575b600080fd5b61012361011e36600461129e565b610278565b005b6101236101333660046112ea565b610460565b61014b6101463660046112ea565b61068f565b60405190151581526020015b60405180910390f35b6101236106bf565b61014b610176366004611343565b6106f5565b61018e6101893660046112ea565b610759565b604051908152602001610157565b61014b6101aa366004611343565b610784565b6000546001600160a01b03165b6040516001600160a01b039091168152602001610157565b6101236101e236600461135e565b6107e0565b6101ef610a38565b6040516101579190611483565b6101bc61020a3660046114e5565b610bc5565b61014b61021d366004611343565b610c69565b6101bc6102303660046112ea565b610c76565b60075461018e565b61018e610cab565b610123610253366004611343565b610cbc565b61026b6102663660046114e5565b610d57565b60405161015791906114fe565b6008546040516341709d2d60e01b8152600481018590526000916001600160a01b0316906341709d2d90602401600060405180830381865afa1580156102c2573d6000803e3d6000fd5b505050506040513d6000823e601f3d908101601f191682016040526102ea9190810190611527565b905060006001826040516102fe91906115d4565b908152604051908190036020018120805492151560ff19909316929092179091556000906002906103309084906115d4565b90815260405190819003602001812080546001600160a01b039384166001600160a01b03199091161790556008546323b872dd60e01b825233600483015230602483015260448201879052909116906323b872dd90606401600060405180830381600087803b1580156103a257600080fd5b505af11580156103b6573d6000803e3d6000fd5b505050506007604051806060016040528083815260200185858080601f0160208091040260200160405190810160405280939291908181526020018383808284376000920182905250938552505042602093840152508354600181018555938152819020825180519394600302909101926104349284920190611148565b50602082810151805161044d9260018501920190611148565b5060408201518160020155505050505050565b600182826040516104729291906115f0565b9081526040519081900360200190205460ff166104d65760405162461bcd60e51b815260206004820152601c60248201527f417572614e46544272696467653a206e6f7420617661696c61626c650000000060448201526064015b60405180910390fd5b336001600160a01b0316600283836040516104f29291906115f0565b908152604051908190036020019020546001600160a01b0316146105635760405162461bcd60e51b815260206004820152602260248201527f417572614e46544272696467653a207069636b207570206e6f7420616c6c6f77604482015261195960f21b60648201526084016104cd565b6008546040516001600160a01b039091169063a5228be89033908590859060039061059190849084906115f0565b9081526040519081900360200181206001600160e01b031960e087901b1682526105c09493929160040161163b565b600060405180830381600087803b1580156105da57600080fd5b505af11580156105ee573d6000803e3d6000fd5b50505050600860009054906101000a90046001600160a01b03166001600160a01b03166383c4c00d6040518163ffffffff1660e01b8152600401602060405180830381865afa158015610645573d6000803e3d6000fd5b505050506040513d601f19601f820116820180604052508101906106699190611723565b6004838360405161067b9291906115f0565b908152604051908190036020019020555050565b6000600183836040516106a39291906115f0565b9081526040519081900360200190205460ff1690505b92915050565b6000546001600160a01b031633146106e95760405162461bcd60e51b81526004016104cd9061173c565b6106f36000610f23565b565b600080546001600160a01b031633146107205760405162461bcd60e51b81526004016104cd9061173c565b6001600160a01b0382166107465760405162461bcd60e51b81526004016104cd90611771565b610751600583610f73565b90505b919050565b60006004838360405161076d9291906115f0565b908152602001604051809103902054905092915050565b600080546001600160a01b031633146107af5760405162461bcd60e51b81526004016104cd9061173c565b6001600160a01b0382166107d55760405162461bcd60e51b81526004016104cd90611771565b610751600583610f8f565b6107e933610c69565b6108355760405162461bcd60e51b815260206004820152601960248201527f63616c6c6572206973206e6f742074686520627269646765720000000000000060448201526064016104cd565b600185856040516108479291906115f0565b9081526040519081900360200190205460ff16156108bb5760405162461bcd60e51b815260206004820152602b60248201527f417572614e46544272696467653a2054686520746f6b656e20697320616c726560448201526a18591e48189c9a5919d95960aa1b60648201526084016104cd565b60018086866040516108ce9291906115f0565b908152604051908190036020018120805492151560ff1990931692909217909155839060029061090190889088906115f0565b908152602001604051809103902060006101000a8154816001600160a01b0302191690836001600160a01b031602179055506000600486866040516109479291906115f0565b9081526020016040518091039020541115610a01576008546040516001600160a01b03909116906323b872dd9030908690600490610988908b908b906115f0565b908152604051908190036020018120546001600160e01b031960e086901b1682526001600160a01b0393841660048301529190921660248301526044820152606401600060405180830381600087803b1580156109e457600080fd5b505af11580156109f8573d6000803e3d6000fd5b50505050610a31565b818160038787604051610a159291906115f0565b908152604051908190036020019020610a2f9290916111cc565b505b5050505050565b60606007805480602002602001604051908101604052809291908181526020016000905b82821015610bbc5783829060005260206000209060030201604051806060016040529081600082018054610a8f90611600565b80601f0160208091040260200160405190810160405280929190818152602001828054610abb90611600565b8015610b085780601f10610add57610100808354040283529160200191610b08565b820191906000526020600020905b815481529060010190602001808311610aeb57829003601f168201915b50505050508152602001600182018054610b2190611600565b80601f0160208091040260200160405190810160405280929190818152602001828054610b4d90611600565b8015610b9a5780601f10610b6f57610100808354040283529160200191610b9a565b820191906000526020600020905b815481529060010190602001808311610b7d57829003601f168201915b5050505050815260200160028201548152505081526020019060010190610a5c565b50505050905090565b600080546001600160a01b03163314610bf05760405162461bcd60e51b81526004016104cd9061173c565b6001610bfa610cab565b610c0491906117bc565b821115610c5e5760405162461bcd60e51b815260206004820152602260248201527f417572614e46544272696467653a20696e646578206f7574206f6620626f756e604482015261647360f01b60648201526084016104cd565b610751600583610fa4565b6000610751600583610fb0565b600060028383604051610c8a9291906115f0565b908152604051908190036020019020546001600160a01b0316905092915050565b6000610cb76005610fd2565b905090565b6000546001600160a01b03163314610ce65760405162461bcd60e51b81526004016104cd9061173c565b6001600160a01b038116610d4b5760405162461bcd60e51b815260206004820152602660248201527f4f776e61626c653a206e6577206f776e657220697320746865207a65726f206160448201526564647265737360d01b60648201526084016104cd565b610d5481610f23565b50565b610d7b60405180606001604052806060815260200160608152602001600081525090565b6007548210610dc25760405162461bcd60e51b8152602060048201526013602482015272696e646578206f7574206f6620626f756e647360681b60448201526064016104cd565b60078281548110610dd557610dd56117e1565b9060005260206000209060030201604051806060016040529081600082018054610dfe90611600565b80601f0160208091040260200160405190810160405280929190818152602001828054610e2a90611600565b8015610e775780601f10610e4c57610100808354040283529160200191610e77565b820191906000526020600020905b815481529060010190602001808311610e5a57829003601f168201915b50505050508152602001600182018054610e9090611600565b80601f0160208091040260200160405190810160405280929190818152602001828054610ebc90611600565b8015610f095780601f10610ede57610100808354040283529160200191610f09565b820191906000526020600020905b815481529060010190602001808311610eec57829003601f168201915b505050505081526020016002820154815250509050919050565b600080546001600160a01b038381166001600160a01b0319831681178455604051919092169283917f8be0079c531659141344cd1fd0a4f28419497f9722a3daafe3b4186f6b6457e09190a35050565b6000610f88836001600160a01b038416610fdc565b9392505050565b6000610f88836001600160a01b03841661102b565b6000610f88838361111e565b6001600160a01b03811660009081526001830160205260408120541515610f88565b6000610751825490565b6000818152600183016020526040812054611023575081546001818101845560008481526020808220909301849055845484825282860190935260409020919091556106b9565b5060006106b9565b6000818152600183016020526040812054801561111457600061104f6001836117bc565b8554909150600090611063906001906117bc565b90508181146110c8576000866000018281548110611083576110836117e1565b90600052602060002001549050808760000184815481106110a6576110a66117e1565b6000918252602080832090910192909255918252600188019052604090208390555b85548690806110d9576110d96117f7565b6001900381819060005260206000200160009055905585600101600086815260200190815260200160002060009055600193505050506106b9565b60009150506106b9565b6000826000018281548110611135576111356117e1565b9060005260206000200154905092915050565b82805461115490611600565b90600052602060002090601f01602090048101928261117657600085556111bc565b82601f1061118f57805160ff19168380011785556111bc565b828001600101855582156111bc579182015b828111156111bc5782518255916020019190600101906111a1565b506111c8929150611240565b5090565b8280546111d890611600565b90600052602060002090601f0160209004810192826111fa57600085556111bc565b82601f106112135782800160ff198235161785556111bc565b828001600101855582156111bc579182015b828111156111bc578235825591602001919060010190611225565b5b808211156111c85760008155600101611241565b60008083601f84011261126757600080fd5b50813567ffffffffffffffff81111561127f57600080fd5b60208301915083602082850101111561129757600080fd5b9250929050565b6000806000604084860312156112b357600080fd5b83359250602084013567ffffffffffffffff8111156112d157600080fd5b6112dd86828701611255565b9497909650939450505050565b600080602083850312156112fd57600080fd5b823567ffffffffffffffff81111561131457600080fd5b61132085828601611255565b90969095509350505050565b80356001600160a01b038116811461075457600080fd5b60006020828403121561135557600080fd5b610f888261132c565b60008060008060006060868803121561137657600080fd5b853567ffffffffffffffff8082111561138e57600080fd5b61139a89838a01611255565b90975095508591506113ae6020890161132c565b945060408801359150808211156113c457600080fd5b506113d188828901611255565b969995985093965092949392505050565b60005b838110156113fd5781810151838201526020016113e5565b8381111561140c576000848401525b50505050565b6000815180845261142a8160208601602086016113e2565b601f01601f19169290920160200192915050565b60008151606084526114536060850182611412565b90506020830151848203602086015261146c8282611412565b915050604083015160408501528091505092915050565b6000602080830181845280855180835260408601915060408160051b870101925083870160005b828110156114d857603f198886030184526114c685835161143e565b945092850192908501906001016114aa565b5092979650505050505050565b6000602082840312156114f757600080fd5b5035919050565b602081526000610f88602083018461143e565b634e487b7160e01b600052604160045260246000fd5b60006020828403121561153957600080fd5b815167ffffffffffffffff8082111561155157600080fd5b818401915084601f83011261156557600080fd5b81518181111561157757611577611511565b604051601f8201601f19908116603f0116810190838211818310171561159f5761159f611511565b816040528281528760208487010111156115b857600080fd5b6115c98360208301602088016113e2565b979650505050505050565b600082516115e68184602087016113e2565b9190910192915050565b8183823760009101908152919050565b600181811c9082168061161457607f821691505b6020821081141561163557634e487b7160e01b600052602260045260246000fd5b50919050565b60018060a01b0385168152600060206060818401528460608401528486608085013760008060808786010152601f19601f8701168401608085820301604086015281865483600182811c91508083168061169657607f831692505b8783108114156116b457634e487b7160e01b87526022600452602487fd5b6080860183905260a0860195508080156116d557600181146116e657611710565b60ff19851687528887019550611710565b60008c815260209020885b8581101561170a57815489820152908401908a016116f1565b88019650505b50939d9c50505050505050505050505050565b60006020828403121561173557600080fd5b5051919050565b6020808252818101527f4f776e61626c653a2063616c6c6572206973206e6f7420746865206f776e6572604082015260600190565b6020808252602b908201527f417572614e46544272696467653a205f6272696467657220697320746865207a60408201526a65726f206164647265737360a81b606082015260800190565b6000828210156117dc57634e487b7160e01b600052601160045260246000fd5b500390565b634e487b7160e01b600052603260045260246000fd5b634e487b7160e01b600052603160045260246000fdfea2646970667358221220da95f07498f8a34c116ecc34cc33253b529f1f4c9639b34fc62f93ac39de95fa64736f6c634300080a0033",
  "immutableReferences": {},
  "source": "// SPDX-License-Identifier: MIT\r\npragma solidity >= 0.8.0;\r\n\r\nimport \"../tokens/AuraNFT.sol\";\r\nimport \"@openzeppelin/contracts/access/Ownable.sol\";\r\nimport \"@openzeppelin/contracts/utils/structs/EnumerableSet.sol\";\r\n\r\n/**\r\n * AuraNFTBridge is responsible for many things related to NFT Bridging from-/to-\r\n * Solana blockchain. Here's the full list:\r\n *  - allow Solana NFT to be minted on BSC (bridgeFromSolana)\r\n */\r\ncontract AuraNFTBridge is Ownable {\r\n    using EnumerableSet for EnumerableSet.AddressSet;\r\n\r\n    /**\r\n     * @dev If the NFT is available on the BSC, then this map stores true\r\n     * for the externalID, false otherwise.\r\n     */\r\n    mapping(string => bool) private _bridgedExternalTokenIDs;\r\n\r\n    /**\r\n     * @dev If the NFT is available on the BSC, but it either:\r\n     * - has not been minted\r\n     * - has not been picked up by the owner from the bridge contract\r\n     */\r\n    mapping(string => address) private _bridgedExternalTokenIDsPickUp;\r\n\r\n    mapping(string => string) private _externalIDToURI;\r\n\r\n    /**\r\n     * @dev Stores the mapping between external token IDs and addresses of the actual\r\n     * minted AuraNFTs.\r\n     */\r\n     mapping(string => uint256) private _minted;\r\n\r\n    /**\r\n     * @dev Bridgers are Aura service accounts which listen to the events\r\n     *      happening on the Solana chain and then enabling the NFT for\r\n     *      minting / unlocking it for usage on BSC.\r\n     */\r\n    EnumerableSet.AddressSet private _bridgers;\r\n\r\n    /**\r\n     * @dev Struct to keep track of all the NFTs to be bridged to Solana.    \r\n     */\r\n    struct BridgeToSolana {\r\n        string externalTokenID;\r\n        string externalOwnerID;\r\n        uint256 timestamp;\r\n    }\r\n    BridgeToSolana[] private _bridgeEvents;\r\n\r\n    /**\r\n     * @dev AuraNFT contract    \r\n     */\r\n    AuraNFT auraNFT;\r\n\r\n    constructor(AuraNFT _auraNFT) {\r\n        auraNFT = _auraNFT;\r\n    }\r\n    \r\n    /**\r\n     * @dev This function is called ONLY by bridgers to bridge the token to BSC\r\n     */\r\n    function bridgeFromSolana(string calldata externalTokenID, address owner, string calldata uri) onlyBridger external {\r\n        require(!_bridgedExternalTokenIDs[externalTokenID], \"AuraNFTBridge: The token is already bridged\");\r\n        _bridgedExternalTokenIDs[externalTokenID] = true;\r\n        _bridgedExternalTokenIDsPickUp[externalTokenID] = owner;\r\n\r\n        // If the token is already minted, we could send it directly to the user's wallet\r\n        if (_minted[externalTokenID] > 0) {\r\n            auraNFT.transferFrom(address(this), owner, _minted[externalTokenID]);\r\n        } else {\r\n            _externalIDToURI[externalTokenID] = uri;\r\n        }\r\n    }\r\n\r\n    /**\r\n     * @dev Used for minting the NFT first-time bridged to BSC from Solana.\r\n     */\r\n    function mintBridgedNFT(string calldata externalTokenID) external {\r\n        require(_bridgedExternalTokenIDs[externalTokenID], \"AuraNFTBridge: not available\");\r\n        require(_bridgedExternalTokenIDsPickUp[externalTokenID] == msg.sender, \"AuraNFTBridge: pick up not allowed\");\r\n\r\n        auraNFT.mintExternal(msg.sender, externalTokenID, _externalIDToURI[externalTokenID]);\r\n\r\n        _minted[externalTokenID] = auraNFT.getLastTokenId();\r\n    }\r\n\r\n    /**\r\n     * @dev Whether the token is bridged or not.\r\n     */\r\n    function isBridged(string calldata externalTokenID) view public returns (bool) {\r\n        return _bridgedExternalTokenIDs[externalTokenID];\r\n    }\r\n\r\n    /**\r\n     * @dev Get the owner to pick up the NFT from the bridge contract.\r\n     */\r\n    function getPickUpOwner(string calldata externalTokenID) view public returns (address) {\r\n        return _bridgedExternalTokenIDsPickUp[externalTokenID];\r\n    }\r\n\r\n    /**\r\n     * @dev Returns the address of the minted NFT if available, address(0) otherwise.\r\n     */\r\n    function getMinted(string calldata externalTokenID) view public returns (uint256) {\r\n        return _minted[externalTokenID];\r\n    }\r\n\r\n    /**\r\n     * @dev Mark token as unavailable on BSC.\r\n     */\r\n    function bridgeToSolana(uint256 tokenId, string calldata externalOwnerAddress) external {\r\n        // Get externalTokenID\r\n        string memory externalTokenID = auraNFT.getExternalTokenID(tokenId);\r\n\r\n        // Mark as unavailable on BSC.\r\n        _bridgedExternalTokenIDs[externalTokenID] = false;\r\n        _bridgedExternalTokenIDsPickUp[externalTokenID] = address(0);\r\n\r\n        auraNFT.transferFrom(msg.sender, address(this), tokenId);\r\n\r\n        _bridgeEvents.push(BridgeToSolana({\r\n            externalTokenID: externalTokenID,\r\n            externalOwnerID: externalOwnerAddress,\r\n            timestamp: block.timestamp\r\n        }));\r\n    }\r\n\r\n    /**\r\n     * @dev used by owner to add a bridger service account who calls `bridgeFromSolana`\r\n     * @param _bridger address of bridger to be added.\r\n     * @return true if successful.\r\n     */\r\n    function addBridger(address _bridger) public onlyOwner returns (bool) {\r\n        require(\r\n            _bridger != address(0),\r\n            \"AuraNFTBridge: _bridger is the zero address\"\r\n        );\r\n        return EnumerableSet.add(_bridgers, _bridger);\r\n    }\r\n\r\n    /**\r\n     * @dev used by owner to delete bridger\r\n     * @param _bridger address of bridger to be deleted.\r\n     * @return true if successful.\r\n     */\r\n    function delBridger(address _bridger) external onlyOwner returns (bool) {\r\n        require(\r\n            _bridger != address(0),\r\n            \"AuraNFTBridge: _bridger is the zero address\"\r\n        );\r\n        return EnumerableSet.remove(_bridgers, _bridger);\r\n    }\r\n\r\n\r\n    /**\r\n     * @dev See the number of bridgers\r\n     * @return number of bridges.\r\n     */\r\n    function getBridgersLength() public view returns (uint256) {\r\n        return EnumerableSet.length(_bridgers);\r\n    }\r\n\r\n    /**\r\n     * @dev Check if an address is a bridger\r\n     * @return true or false based on bridger status.\r\n     */\r\n    function isBridger(address account) public view returns (bool) {\r\n        return EnumerableSet.contains(_bridgers, account);\r\n    }\r\n\r\n    /**\r\n     * @dev Get the staker at n location\r\n     * @param _index index of address set\r\n     * @return address of staker at index.\r\n     */\r\n    function getBridger(uint256 _index)\r\n        external\r\n        view\r\n        onlyOwner\r\n        returns (address)\r\n    {\r\n        require(_index <= getBridgersLength() - 1, \"AuraNFTBridge: index out of bounds\");\r\n        return EnumerableSet.at(_bridgers, _index);\r\n    }\r\n\r\n    /**\r\n     * @dev Modifier for operations which can be performed only by bridgers\r\n     */\r\n    modifier onlyBridger() {\r\n        require(isBridger(msg.sender), \"caller is not the bridger\");\r\n        _;\r\n    }\r\n\r\n    /**\r\n     * @dev Returns the number of bridge to solana events    \r\n     */\r\n    function getBridgeToSolanaEventsSize() view public returns (uint) {\r\n        return _bridgeEvents.length;\r\n    }\r\n\r\n    /**\r\n     * @dev Returns bridge to solana events.\r\n     */\r\n    function getBridgeToSolanaEvents() view public returns (BridgeToSolana[] memory) {\r\n        return _bridgeEvents;\r\n    }\r\n\r\n    /**\r\n     * @dev Returns a particular bridge to solana event.    \r\n     */\r\n    function getBridgeToSolanaEvent(uint index) view public returns (BridgeToSolana memory) {\r\n        require(index < getBridgeToSolanaEventsSize(), \"index out of bounds\");\r\n        return _bridgeEvents[index];\r\n    }\r\n}",
  "sourcePath": "D:\\Workspace\\Aura\\aura\\contracts\\stakingNFT\\AuraNFTBridge.sol",
  "compiler": {
    "name": "solc",
    "version": "0.8.10+commit.fc410830.Emscripten.clang"
  },
  "schemaVersion": "3.4.5",
  "updatedAt": "2022-03-17T21:03:48.080Z",
  "devdoc": {
    "kind": "dev",
    "methods": {
      "addBridger(address)": {
        "details": "used by owner to add a bridger service account who calls `bridgeFromSolana`",
        "params": {
          "_bridger": "address of bridger to be added."
        },
        "returns": {
          "_0": "true if successful."
        }
      },
      "bridgeFromSolana(string,address,string)": {
        "details": "This function is called ONLY by bridgers to bridge the token to BSC"
      },
      "bridgeToSolana(uint256,string)": {
        "details": "Mark token as unavailable on BSC."
      },
      "delBridger(address)": {
        "details": "used by owner to delete bridger",
        "params": {
          "_bridger": "address of bridger to be deleted."
        },
        "returns": {
          "_0": "true if successful."
        }
      },
      "getBridgeToSolanaEvent(uint256)": {
        "details": "Returns a particular bridge to solana event.    "
      },
      "getBridgeToSolanaEvents()": {
        "details": "Returns bridge to solana events."
      },
      "getBridgeToSolanaEventsSize()": {
        "details": "Returns the number of bridge to solana events    "
      },
      "getBridger(uint256)": {
        "details": "Get the staker at n location",
        "params": {
          "_index": "index of address set"
        },
        "returns": {
          "_0": "address of staker at index."
        }
      },
      "getBridgersLength()": {
        "details": "See the number of bridgers",
        "returns": {
          "_0": "number of bridges."
        }
      },
      "getMinted(string)": {
        "details": "Returns the address of the minted NFT if available, address(0) otherwise."
      },
      "getPickUpOwner(string)": {
        "details": "Get the owner to pick up the NFT from the bridge contract."
      },
      "isBridged(string)": {
        "details": "Whether the token is bridged or not."
      },
      "isBridger(address)": {
        "details": "Check if an address is a bridger",
        "returns": {
          "_0": "true or false based on bridger status."
        }
      },
      "mintBridgedNFT(string)": {
        "details": "Used for minting the NFT first-time bridged to BSC from Solana."
      },
      "owner()": {
        "details": "Returns the address of the current owner."
      },
      "renounceOwnership()": {
        "details": "Leaves the contract without owner. It will not be possible to call `onlyOwner` functions anymore. Can only be called by the current owner. NOTE: Renouncing ownership will leave the contract without an owner, thereby removing any functionality that is only available to the owner."
      },
      "transferOwnership(address)": {
        "details": "Transfers ownership of the contract to a new account (`newOwner`). Can only be called by the current owner."
      }
    },
    "stateVariables": {
      "_bridgedExternalTokenIDs": {
        "details": "If the NFT is available on the BSC, then this map stores true for the externalID, false otherwise."
      },
      "_bridgedExternalTokenIDsPickUp": {
        "details": "If the NFT is available on the BSC, but it either: - has not been minted - has not been picked up by the owner from the bridge contract"
      },
      "_bridgers": {
        "details": "Bridgers are Aura service accounts which listen to the events      happening on the Solana chain and then enabling the NFT for      minting / unlocking it for usage on BSC."
      },
      "_minted": {
        "details": "Stores the mapping between external token IDs and addresses of the actual minted AuraNFTs."
      },
      "auraNFT": {
        "details": "AuraNFT contract    "
      }
    },
    "version": 1
  },
  "userdoc": {
    "kind": "user",
    "methods": {},
    "notice": "AuraNFTBridge is responsible for many things related to NFT Bridging from-/to- Solana blockchain. Here's the full list:  - allow Solana NFT to be minted on BSC (bridgeFromSolana)",
    "version": 1
  }
}